:100000000C9463000C948B000C948B000C948B006C
:100010000C948B000C948B000C948B000C945E0A57
:100020000C948B000C948B000C948B000C948B0024
:100030000C948B000C948B000C948B000C948B0014
:100040000C94F3020C948B000C9445060C947706E8
:100050000C948B000C948B000C948B000C948B00F4
:100060000C948B000C948B0000000008000201002F
:100070000003040700000000000000000102040863
:100080001020408001020408102001020408102002
:10009000040404040404040402020202020203032E
:1000A00003030303000000002300260029000000D2
:1000B0000000250028002B0000000000240027007D
:1000C0002A000200A70611241FBECFEFD8E0DEBF32
:1000D000CDBF11E0A0E0B1E0ECE8F6E102C0059090
:1000E0000D92A035B107D9F722E0A0E5B1E001C03B
:1000F0001D92AD31B207E1F710E0C6ECD0E004C0CC
:100100002297FE010E94310BC43CD107C9F70E941F
:10011000EB060C94440B0C94000082E00E94D70480
:10012000892B31F461E082E00E94A10480E008950F
:1001300081E00895BF92CF92DF92EF92FF920F93EA
:100140001F93CF93DF938091500190915101909331
:1001500053018093520183E2E82E81E0F82ECCE532
:10016000D1E000E010E0BB24B3946E011882F701E7
:100170008081F2E0EF0EF11C0E94C30390935B01BB
:1001800080935A01209158013091590182179307A9
:100190000CF4B88265E070E080E090E00E946003BB
:1001A00021960F5F1F4FF6012081209FC001219FE4
:1001B000900D11242091500130915101820F931F15
:1001C00090935101809350010530110571F62091F3
:1001D0005C0160915D0170E0620F711D20915E0114
:1001E000620F711D20915F01620F711D20916001EE
:1001F000620F711D20916101620F711D0E94BB0A87
:100200007093510160935001DF91CF911F910F9135
:10021000FF90EF90DF90CF90BF900895CF93DF9342
:10022000EB0120E030E0A901BC0183E00E941A0844
:10023000BE01882777FD8095982F0E94600383E098
:10024000DF91CF910C94490A60E088E00E94A104FC
:1002500060E089E00E94A10460E08AE00E94A104BD
:1002600060E08BE00E94A10464EF71E080E293E023
:100270000C940E01CF93DF938FEF93E09093550191
:1002800080935401C3E2D1E0888122960E94C30387
:1002900090935B0180935A01209156013091570150
:1002A0008217930724F09093570180935601209171
:1002B0005401309155012817390724F090935501C6
:1002C0008093540165E070E080E090E00E9460035C
:1002D00081E0CF32D807C1F6609100017091010131
:1002E00085E00E94E00361E088E00E94A10460E0F4
:1002F00089E00E94A104609100017091010186E0F3
:100300000E94E00360E08AE00E94A10461E08BE0CB
:100310000E94A1046CE271E080E090E00E94600322
:100320000E942401C3E2D1E0888122960E94C30387
:1003300090935B0180935A012091540130915501B3
:100340002817390734F0820F931F9093550180933B
:10035000540165E070E080E090E00E94600381E07D
:10036000CF32D80709F7609100017091010185E053
:100370000E94E00360E088E00E94A10461E089E05F
:100380000E94A104609100017091010186E00E9429
:10039000E00361E08AE00E94A10460E08BE00E943B
:1003A000A10468E572E080E090E00E9460030E9492
:1003B0002401C3E2D1E0888122960E94C303909376
:1003C0005B0180935A012091540130915501281707
:1003D000390734F0820F931F909355018093540195
:1003E00065E070E080E090E00E94600381E0CF3241
:1003F000D80709F7609100017091010185E00E9422
:10040000E00361E088E00E94A10460E089E00E94CE
:10041000A104609100017091010186E00E94E00357
:1004200060E08AE00E94A10461E08BE00E94A104E8
:1004300060E471E080E090E00E9460030E9424018B
:1004400080915401909155016DE070E00E94BB0ACB
:10045000709355016093540180915601909157011A
:10046000860F971F97FD0196959587959093590153
:100470008093580164E071E08BE691E00E943807B8
:1004800060915601709157014AE050E08BE691E08F
:100490000E9402086CE071E08BE691E00E94380750
:1004A00060915401709155014AE050E08BE691E073
:1004B0000E94020864E171E08BE691E00E94380737
:1004C00060915801709159014AE050E08BE691E04B
:1004D000DF91CF910C9402080E949A0080915C01F8
:1004E000882341F090916101992329F00E94240111
:1004F00080E0089581E0089560E082E00E94680451
:1005000061E083E00E94680461E088E00E94680482
:1005100061E089E00E94680461E08AE00E9468046A
:1005200061E08BE00E94680461E082E00E94A10427
:1005300026E040E855E260E070E08BE691E00E9442
:10054000E30560E271E08BE691E00E9445076CED07
:1005500070E085E00C94E003CF93DF930E949A0053
:10056000CCE5D1E0699170E04AE050E08BE691E0A3
:100570000E94FA076EE171E08BE691E00E94380775
:1005800081E0C236D80771F76EE171E08BE691E049
:100590000E94450764EF71E080E090E0DF91CF9129
:1005A0000C9460030E948D008111FCCF68EE73E013
:1005B00080E090E00E9460030E943A010E948D005A
:1005C0008111FCCF0E94AC020E948D008111FCCFF2
:1005D00068EE73E080E090E00E9460030E946C028D
:1005E0008111FCCF08951F920F920FB60F92112424
:1005F0002F933F938F939F93AF93BF93809163010A
:1006000090916401A0916501B09166013091620101
:1006100023E0230F2D3720F40196A11DB11D05C045
:1006200026E8230F0296A11DB11D2093620180933D
:10063000630190936401A0936501B093660180917A
:10064000670190916801A0916901B0916A010196DA
:10065000A11DB11D8093670190936801A09369016A
:10066000B0936A01BF91AF919F918F913F912F916C
:100670000F900FBE0F901F9018953FB7F894809180
:10068000670190916801A0916901B0916A0126B556
:10069000A89B05C02F3F19F00196A11DB11D3FBFBA
:1006A0006627782F892F9A2F620F711D811D911D4A
:1006B00042E0660F771F881F991F4A95D1F708956A
:1006C000CF92DF92EF92FF92CF93DF936B017C0189
:1006D0000E943D03EB01C114D104E104F10489F04F
:1006E0000E94BA0A0E943D036C1B7D0B683E73405A
:1006F00090F381E0C81AD108E108F108C851DC4F35
:10070000EACFDF91CF91FF90EF90DF90CF900895E7
:10071000789484B5826084BD84B5816084BD85B5DC
:10072000826085BD85B5816085BDEEE6F0E08081A3
:1007300081608083E1E8F0E01082808182608083C4
:10074000808181608083E0E8F0E080818160808347
:10075000E1EBF0E0808184608083E0EBF0E0808179
:1007600081608083EAE7F0E080818460808380811B
:1007700082608083808181608083808180688083C3
:100780001092C10008958E3008F08E50877020912D
:10079000020190E4299F90011124822B80937C0018
:1007A00080917A00806480937A0080917A0086FD3F
:1007B000FCCF809178002091790090E0922B0895F1
:1007C0001F93CF93DF93182FEB0161E00E94680421
:1007D000209711F460E004C0CF3FD10539F461E007
:1007E000812FDF91CF911F910C94A104E12FF0E0B4
:1007F000E859FF4FE491E330F9F048F4E130B9F003
:10080000E230A1F584B5806284BDC8BD34C0E73054
:10081000E9F0E83019F1E43049F580918000806218
:1008200080938000D0938B00C0938A0024C084B54D
:10083000806884BDC7BD1FC08091800080688093A0
:100840008000D0938900C093880015C08091B000CB
:1008500080688093B000C093B3000DC08091B00059
:1008600080628093B000C093B40005C0C038D10549
:100870000CF0B5CFAFCFDF91CF911F9108958330AA
:1008800081F028F4813099F08230A1F0089587300A
:10089000A9F08830B9F08430D1F4809180008F7D48
:1008A00003C0809180008F7780938000089584B585
:1008B0008F7702C084B58F7D84BD08958091B0008C
:1008C0008F7703C08091B0008F7D8093B000089532
:1008D000CF93DF9390E0FC01E458FF4F2491FC019B
:1008E000E057FF4F8491882349F190E0880F991FCA
:1008F000FC01E854FF4FA591B49182559F4FFC0134
:10090000C591D4919FB7611108C0F8948C9120953E
:1009100082238C93888182230AC0623051F4F89438
:100920008C91322F309583238C938881822B8883FE
:1009300004C0F8948C91822B8C939FBFDF91CF9150
:1009400008950F931F93CF93DF931F92CDB7DEB718
:10095000282F30E0F901E859FF4F8491F901E4585C
:10096000FF4F1491F901E057FF4F04910023C9F0A4
:10097000882321F069830E943F046981E02FF0E021
:10098000EE0FFF1FE255FF4FA591B4919FB7F8946A
:100990008C91611103C01095812301C0812B8C9330
:1009A0009FBF0F90DF91CF911F910F910895CF932B
:1009B000DF93282F30E0F901E859FF4F8491F901C6
:1009C000E458FF4FD491F901E057FF4FC491CC2375
:1009D00091F081110E943F04EC2FF0E0EE0FFF1F19
:1009E000EC55FF4FA591B4912C912D2381E090E01F
:1009F00021F480E002C080E090E0DF91CF91089583
:100A0000FC01818D228D90E0805C9F4F821B9109BB
:100A10008F7399270895FC01918D828D981731F07D
:100A2000828DE80FF11D858D90E008958FEF9FEF87
:100A30000895FC01918D828D981761F0828DDF0100
:100A4000A80FB11D5D968C91928D9F5F9F73928FC1
:100A500090E008958FEF9FEF08958DE996E0892B40
:100A600049F080E090E0892B29F00E949D068111D9
:100A70000C9400000895FC01848DDF01A80FB11DC6
:100A8000A35ABF4F2C91848D90E001968F739927C4
:100A9000848FA689B7892C93A089B1898C918064B1
:100AA0008C93938D848D981306C00288F389E02D72
:100AB00080818F7D80830895CF93DF93EC01888DB3
:100AC0008823C9F0EA89FB89808185FD05C0A88952
:100AD000B9898C9186FD0FC00FB607FCF5CF8081D8
:100AE00085FFF2CFA889B9898C9185FFEDCFCE0122
:100AF0000E943B05E7CFDF91CF910895CF92DF921F
:100B0000FF920F931F93CF93DF931F92CDB7DEB762
:100B10006C0181E0D60158968C9358975B969C9116
:100B20005B975C968C915C97981307C05096ED91FB
:100B3000FC915197808185FD2EC0F601038D10E058
:100B40000F5F1F4F0F731127F02EF601848DF812DF
:100B500011C00FB607FCF9CFD6015096ED91FC916C
:100B60005197808185FFF1CFC60169830E943B05C3
:100B70006981EBCF838DE80FF11DE35AFF4F60834E
:100B8000D6015B960C935B975296ED91FC9153972F
:100B9000808180620CC0D6015696ED91FC915797EA
:100BA00060835096ED91FC915197808180648083A1
:100BB00081E090E00F90DF91CF911F910F91FF9016
:100BC000DF90CF900895BF92CF92DF92EF92FF9285
:100BD000CF93DF93EC016A017B01B22EE889F9899A
:100BE00082E08083411581EE580761057105A1F00F
:100BF00060E079E08DE390E0A70196010E94CF0AC2
:100C00002150310941095109569547953795279546
:100C1000211580E1380798F0E889F989108260E8A9
:100C200074E88EE190E0A70196010E94CF0A21505E
:100C30003109410951095695479537952795EC8516
:100C4000FD853083EE85FF852083188EEC89FD8934
:100C5000B082EA89FB89808180618083EA89FB898F
:100C6000808188608083EA89FB89808180688083B5
:100C7000EA89FB8980818F7D8083DF91CF91FF900E
:100C8000EF90DF90CF90BF9008951F920F920FB614
:100C90000F9211242F938F939F93EF93FF93E091E3
:100CA0007B01F0917C018081E0918101F0918201D2
:100CB00082FD12C09081809184018F5F8F7320919B
:100CC0008501821751F0E0918401F0E0E559FE4F73
:100CD000958F8093840101C08081FF91EF919F9156
:100CE0008F912F910F900FBE0F901F9018951F920C
:100CF0000F920FB60F9211242F933F934F935F9350
:100D00006F937F938F939F93AF93BF93EF93FF93D3
:100D10008BE691E00E943B05FF91EF91BF91AF916F
:100D20009F918F917F916F915F914F913F912F9103
:100D30000F900FBE0F901F9018958BE691E00E94C8
:100D4000000521E0892B09F420E0822F08951092FC
:100D50006E0110926D0188EE93E0A0E0B0E0809308
:100D60006F0190937001A0937101B093720183E3BE
:100D700091E090936C0180936B0185EC90E09093EF
:100D800078018093770184EC90E090937A018093CE
:100D9000790180EC90E090937C0180937B0181EC61
:100DA00090E090937E0180937D0182EC90E090939F
:100DB000800180937F0186EC90E090938201809384
:100DC0008101109284011092850110928601109287
:100DD0008701089508950E9488030E94EA060E94F0
:100DE0007C02CDE2D5E00E94D2022097E1F30E947E
:100DF0002D05F9CFCF92DF92EF92FF920F931F93C1
:100E0000CF93DF937C016A01EB0100E010E00C1549
:100E10001D0571F06991D701ED91FC910190F08170
:100E2000E02DC7010995892B19F00F5F1F4FEFCFF8
:100E3000C801DF91CF911F910F91FF90EF90DF904C
:100E4000CF9008956115710581F0DB010D900020B0
:100E5000E9F7AD0141505109461B570BDC01ED91FB
:100E6000FC910280F381E02D099480E090E00895E8
:100E70000C942207DC01ED91FC910190F081E02DB2
:100E800009946FE371E00C9422070F931F93CF93A3
:100E9000DF93EC010E9422078C01CE010E944107E2
:100EA000800F911FDF91CF911F910F9108958F9225
:100EB0009F92AF92BF92CF92DF92EF92FF920F93E9
:100EC0001F93CF93DF93CDB7DEB7A1970FB6F894FA
:100ED000DEBF0FBECDBF7C01C42EE52FCB01D22ECD
:100EE00019A221E02D1510F02AE0D22E8E010F5DFF
:100EF0001F4F8D2C912CA12CB12C6C2D7E2FA50178
:100F000094010E94CF0A8C2DD29E80191124015089
:100F100011098A3014F4805D01C0895CF801808376
:100F2000211531054105510521F0C22EE32FCA01DB
:100F3000E4CFB801C7010E942207A1960FB6F8942A
:100F4000DEBF0FBECDBFDF91CF911F910F91FF90FC
:100F5000EF90DF90CF90BF90AF909F908F900895CB
:100F6000CF92DF92EF92FF920F931F93CF93DF9375
:100F7000EC016A017B012115310579F4E881F981E1
:100F80000190F081E02D642FDF91CF911F910F919F
:100F9000FF90EF90DF90CF9009942A303105E9F46B
:100FA00077FF1AC06DE20E943A078C01442755274B
:100FB000BA014C195D096E097F092AE0CE010E9431
:100FC0005707800F911FDF91CF911F910F91FF90D5
:100FD000EF90DF90CF9008952AE0B701A601CE01EF
:100FE000DF91CF911F910F91FF90EF90DF90CF9005
:100FF0000C9457079A01AB01662757FD6095762F31
:101000000C94B0070F931F93CF93DF93EC019A01D9
:10101000AB01662757FD6095762F0E94B0078C01C3
:10102000CE010E944107800F911FDF91CF911F9148
:101030000F9108953F924F925F926F927F928F929D
:101040009F92AF92BF92CF92DF92EF92FF920F9357
:101050001F93CF93DF9300D000D0CDB7DEB78B01C5
:1010600029013A0190910301981721F09F3F09F05F
:10107000DAC104C0E2ECF0E0349081C08093030157
:10108000E2ECF0E0E491EF3F09F4CDC1E13031F161
:10109000E23009F44BC0E11171C014BC15BC94B529
:1010A000926094BD95B5916095BD282F30E0F9010F
:1010B000E057FF4FE491F0E0EE0FFF1FE255FF4FC6
:1010C000459154915093180240931702F901E45846
:1010D000FF4F249120931602312C53C010928000B0
:1010E000109281009091810098609093810090917E
:1010F0008100916090938100282F30E0F901E05742
:10110000FF4FE491F0E0EE0FFF1FE255FF4F4591D6
:1011100054915093110240931002F901E458FF4F8B
:10112000249120930F02332433942BC01092B000EB
:101130001092B1009091B00092609093B0009091A5
:10114000B10091609093B100282F30E0F901E05791
:10115000FF4FE491F0E0EE0FFF1FE255FF4F459186
:10116000549150930A0240930902F901E458FF4F49
:1011700024912093080252E0352E03C03E2E37FC06
:1011800052C161E00E9468044801A12CB12C832D5A
:101190008D7F09F0C7C060E072E18AE790E0A501A9
:1011A00094010E94F10A29833A834B835C8369018D
:1011B0007A0181E0C81AD108E108F1089FEFC91649
:1011C000D104E104F10409F008F49AC060E472E487
:1011D0008FE090E0A50194010E94F10A69017A0173
:1011E000E1E0CE1AD108E108F108F2E03F1219C09F
:1011F0008FEFC816D104E104F10409F008F48AC0A5
:1012000060E970ED83E090E0A50194010E94F10A8D
:1012100069017A0191E0C91AD108E108F10883E077
:1012200001C082E0EFEFCE16D104E104F10409F031
:1012300008F467C068E478EE81E090E0A5019401CD
:101240000E94F10A69017A01F1E0CF1AD108E108A0
:10125000F1083320E1F082E038121BC09FEFC9167D
:10126000D104E104F10409F008F4DBC064E274EF96
:1012700080E090E0A50194010E94F10A69017A01E1
:10128000E1E0CE1AD108E108F10885E003C083E06F
:1012900001C084E0FFEFCF16D104E104F10489F12D
:1012A00080F162E17AE780E090E0A50194010E947C
:1012B000F10A69017A0181E0C81AD108E108F10850
:1012C000311002C084E001C086E09FEFC916D1044E
:1012D000E104F104B1F0A8F0C980DA80EB80FC8071
:1012E0009AE0F594E794D794C7949A95D1F7E1E002
:1012F000CE1AD108E108F108332031F087E00BC0A5
:1013000081E0332011F007C085E095B5987F982BD8
:1013100095BD38C082E09091B100987F982B909352
:10132000B10030C060E072E18AE790E0A50194016D
:101330000E94F10A69017A01F1E0CF1AD108E108AF
:10134000F108C114D10481E0E806F10488F068E4F2
:1013500078EE81E090E0A50194010E94F10A690114
:101360007A0191E0C91AD108E108F10893E001C0BF
:1013700091E0E1E03E1206C080918100887F892BD8
:1013800080938100411451046104710471F0D8010B
:10139000AA0FBB1FA30192010E94100B28EE33E09D
:1013A00040E050E00E94CF0A03C02FEF3FEFA901B9
:1013B000F1E03F16A1F082E0381619F1311033C088
:1013C000C7BC2093190230931A0240931B0250931A
:1013D0001C0280916E00826080936E0024C0D092C7
:1013E0008900C09288002093120230931302409328
:1013F00014025093150280916F00826080936F00F9
:1014000012C0C092B30020930B0230930C024093A1
:101410000D0250930E0280917000826080937000E4
:1014200002C084E078CF0F900F900F900F90DF9163
:10143000CF911F910F91FF90EF90DF90CF90BF90D1
:10144000AF909F908F907F906F905F904F903F9064
:101450000895813039F018F0823051F008951092DB
:101460006E00089580916F008D7F80936F000895C6
:10147000809170008D7F8093700081E08093B00038
:101480008091B100887F84608093B1001092B30096
:101490000895CF93C82F809103018C1307C0E2EC0D
:1014A000F0E084919FEF9093030101C08FEF0E94C1
:1014B000290A60E08C2FCF910C94A1041F920F9207
:1014C0000FB60F9211242F933F934F935F936F9317
:1014D0007F938F939F93AF93BF93EF93FF938091ED
:1014E0000B0290910C02A0910D02B0910E02892B7B
:1014F0008A2B8B2B51F190910802E0910902F09117
:101500000A0280818927808380910B0290910C02CE
:10151000A0910D02B0910E02181619061A061B06AC
:10152000C4F480910B0290910C02A0910D02B09135
:101530000E020197A109B10980930B0290930C024E
:10154000A0930D02B0930E0204C0809103010E948B
:10155000490AFF91EF91BF91AF919F918F917F9138
:101560006F915F914F913F912F910F900FBE0F9010
:101570001F901895089597FB072E16F4009407D036
:1015800077FD09D00E941B0B07FC05D03EF4909517
:1015900081959F4F0895709561957F4F0895A1E2C1
:1015A0001A2EAA1BBB1BFD010DC0AA1FBB1FEE1FDD
:1015B000FF1FA217B307E407F50720F0A21BB30B28
:1015C000E40BF50B661F771F881F991F1A9469F7A4
:1015D00060957095809590959B01AC01BD01CF0100
:1015E0000895052E97FB1EF400940E94080B57FDEA
:1015F00007D00E94CF0A07FC03D04EF40C94080BCE
:1016000050954095309521953F4F4F4F5F4F08952E
:1016100090958095709561957F4F8F4F9F4F08955E
:101620000E94350BA59F900DB49F900DA49F800D37
:10163000911D11240895AA1BBB1B51E107C0AA1FCD
:10164000BB1FA617B70710F0A61BB70B881F991F63
:101650005A95A9F780959095BC01CD010895EE0F9C
:10166000FF1F0590F491E02D0994A29FB001B39F54
:10167000C001A39F700D811D1124911DB29F700D9B
:0C168000811D1124911D0895F894FFCFE6
:10168C00B40001FF426C61636B3A200057686974C7
:10169C00653A20005468726573686F6C643A200078
:1016AC004F4B000000010002000300040005000085
:1016BC000000007E05FA06000519050B055C050DFA
:1016CC000A006E616E00696E66006F7666002E0011
:00000001FF
